:100026002A312E4C4544202020202020202020004C
:1000360020322E5541525420332E54696D6572007C
:1000460020312E4C45442020202020202020200036
:100056002A322E5541525420332E54696D65720052
:1000660020322E554152542A332E54696D65720042
:100076004C45442053776974636820202020200073
:100086002A4F4E20204F4646204261636B202000B7
:1000960050574D20436F6E74726F6C2020202000E5
:1000A6002A41646A757374204261636B20202000C4
:1000B6004261636B20746F204D61696E20202000C1
:1000C6002A5965732020202020202020202020006F
:1000D6004C45443A204F4E2020202020202020004E
:1000E6004C45443A204F4646202020202020200020
:1000F6004F4B3A546F67676C6520204261636B0013
:10010600252020202B202D204261636B0055415273
:10011600542053656E64202020202020002A536539
:100126006E64204D73672020202020200055415208
:10013600542052656365697665202020002A53683D
:100146006F77204461746120202020200053656E63
:100156006420746F204953503A20202020003E48E6
:10016600656C6C6F20576F726C64202020003E4DCA
:10017600435520496E666F202020202020003E54E3
:1001860065737420446174612020202020003E4362
:100196006F756E74657220202020202020003E425C
:1001A60061636B202020202020202020200048652D
:1001B6006C6C6F2066726F6D20535443383943352B
:1001C60032210053656E743A2048656C6C6F2020AE
:1001D6002020004D43553A20535443383943353295
:1001E600524300467265713A2031312E303539322C
:1001F6004D487A00554152543A203936303020382D
:100206004E310053656E743A204D435520496E6653
:100216006F200054657374204D65737361676520A4
:10022600313233004142434445464748494A4B4CE4
:100236004D4E4F500053656E743A205465737420CA
:100246004461746100436F756E7465723A200053A1
:10025600656E743A20436F756E7465722020004F88
:100266004B3A5374617274204261636B20200044E0
:100276006174612052656164792120202020004F3D
:100286004B3A436C656172204261636B20200042E9
:10029600756666657220436C65617265642120002F
:1002A6002020202020202020202020202020202048
:1002B600004E657720446174612120202020202093
:1002C600200052656365697665643A202020202007
:1002D60020200057616974696E6720446174612E3D
:1002E6002E2E20005B2320202020202020202020CE
:1002F6002020205D005B232320202020202020209A
:10030600202020205D005B23232320202020202086
:1003160020202020205D0054696D657220436F7592
:100326006E7465722020002A53746172742F5374A0
:100336006F702020202000436C6F636B205379730D
:1003460074656D202020002A53686F772054696DEC
:100356006520202020200054696D65723A202020F7
:100366002020202020200052756E0053746F7000EC
:1003760053746F7020205265736574204261636BFD
:100386000053746172742052657365742042616310
:100396006B0054696D653A20004261636B20746F8F
:0903A600204D656E752020200039
:090C6700017C01017A00017B000F
:100AD500E4F5081210CE757C01E57C24FE601C143B
:100AE500602E240270447BFF7A0079267D017F0108
:100AF500120FEC7BFF7A00793680287BFF7A00792C
:100B0500467D017F01120FEC7BFF7A007956801339
:100B15007BFF7A0079467D017F01120FEC7BFF7A1E
:100B25000079667D017F02120FEC120DB68F08E584
:100B350008B40105AF7C7E0022E508B40213057CEC
:100B4500E57CD394034003757C017FC87E001200C9
:0B0B55000E7F327E0012000E020ADE4E
:1009A000E4F5087509011210CEE50924FE601C1457
:1009B000602E240270447BFF7A0079767D017F01EE
:1009C000120FEC7BFF7A00798680287BFF7A007912
:1009D000967D017F01120FEC7BFF7A0079A68013D0
:1009E0007BFF7A0079B67D017F01120FEC7BFF7AE5
:1009F0000079C67D017F02120FEC120DB68F08E55B
:100A000008B4011AE50924FE600C14603B2402704E
:100A100008120D4D8003120BE41210CE8020E50861
:100A2000B402150509E509D3940340037509017F54
:100A3000C87E0012000E8006E5086403600A7F325B
:080A40007E0012000E0209A95C
:010A4800228B
:100D4D00E4F50AF50B1210CED2A0E50B7BFF600F78
:100D5D007A0079D67D017F01120FECC2A0800D7A49
:100D6D000079E67D017F01120FECD2A07BFF7A00A6
:100D7D0079F67D017F02120FEC120DB68F0AE50A8E
:100D8D00B40115E50B70047F0180027F008F0B7F8E
:100D9D00C87E0012000E8008E50AB40303D2A0221B
:090DAD007F327E0012000E80A1CD
:100BE400E4F50AF50B1210CE7BFF7A0079967D01AD
:100BF4007F01120FECE50BFB7A007514037D017F76
:100C04000212104A7BFF7A0179067D047F02120FDB
:100C1400ECE50BD394004004C2A08002D2A0120DD4
:100C2400B68F0AE50AB4010FE50BC39464501A7435
:100C34000A250BF50B8012E50AB40216E50BD394D2
:100C440000400674F6250BF50B7F967E0012000E0D
:100C54008008E50AB40303D2A0227F647E00120058
:030C64000E80857A
:10084800E4F5087509011210CE121083E50924FE9B
:10085800601C14602E240270447BFF7A0179137D9A
:10086800017F01120FEC7BFF7A01792380287BFF3F
:100878007A0179337D017F01120FEC7BFF7A0179D0
:100888004380137BFF7A0079B67D017F01120FEC5C
:100898007BFF7A0079C67D017F02120FEC120DB63C
:1008A8008F08E508B4011AE50924FE600C14603BC2
:1008B800240270081203AF80031206D21210CE80F1
:1008C80020E508B402150509E509D394034003752A
:1008D80009017F967E0012000E8006E50864036019
:0B08E8000A7F327E0012000E0208544E
:0108F30022E2
:1003AF00E4F50A750B011210CE7BFF7A0179537DAC
:1003BF00017F01120FECE50B24FE601514601A1477
:1003CF00601F1460242404702D7BFF7A01796480F0
:1003DF001E7BFF7A01797480167BFF7A0179848006
:1003EF000E7BFF7A01799480067BFF7A0179A47DD9
:1003FF00017F02120FEC120DB68F0AE50A6401603D
:10040F000302049FE50B24FE602414604414605B18
:10041F001470030204C9240460030204BF7BFF7A33
:10042F000179B41210677BFF7A0179C980557BFF80
:10043F007A0179D91210677BFF7A0179E912106777
:10044F007BFF7A0179FA1210677BFF7A02790980B4
:10045F00327BFF7A0279191210677BFF7A02792AB1
:0B046F001210677BFF7A02793B8018B7
:10047A007BFF7A02794B121067AF7A057A7E0012F7
:10048A000E177BFF7A0279557D017F01120FEC7FEF
:03049A00207E03BE
:10049D008015E50AB40215050BE50BD39405400351
:1004AD00750B017F967E0012000E8006E50A64032F
:0C04BD00600A7F327E0012000E0203B8BD
:0104C9002210
:1006D200E4F50AF50B1210CE1210E2E50B14602EAF
:1006E20004703B7BFF7A0179337D017F01120FECAD
:1006F2007BFF7A0279657D017F02120FEC12115C99
:10070200501C7BFF7A0279757D017F01800D1204F6
:10071200CA7BFF7A0279857D017F02120FEC120DEE
:10072200B68F0AE50A6401703BE50B7005750B0193
:100732008038E50B640170321210E27BFF7A027995
:10074200957D017F01120FEC7BFF7A0279A67D0174
:100752007F02120FEC7F207E0312000EE4F50B12D3
:1007620010CE8006E50A6403602E12115C501FE56C
:100772000BB4011A1210CE7BFF7A0279B77D017F8A
:1007820001120FEC7FF47E0112000E1210CE7F6474
:080792007E0012000E0206DDDC
:01079A00223C
:0804CA0012115C4003020596CB
:1004D20012114A8B0D8A0E890F7BFF7A0279C87D31
:1004E200017F01120FECE4F50CAB0DAA0EA90F85EA
:1004F2000C827583001207B4FF6035C3648094A038
:100502004019D3EF648094FE5011E50C240AFD8556
:100512000C827583001207B4FB8007E50C240AFDE8
:100522007B2E7F01121138050CE50CC3941040B9E3
:10053200AB0DAA0EA90F9000101207B4604E750CF5
:1005420010AB0DAA0EA90F850C827583001207B499
:10055200FF70030205DAC3648094A04019D3EF64EC
:100562008094FE5011E50C24F1FD850C8275830008
:100572001207B4FB8007E50C24F1FD7B2E7F0212EB
:100582001138050CE50CC3942040B6227BFF7A0299
:0205920079A648
:02059400803AAB
:10059600057B7BFF7A0279D97D017F01120FECE59D
:1005A6007BC3941450087BFF7A0279EA801CE57BB2
:1005B600C3942850087BFF7A0279FB800DE57BC344
:1005C600943C500D7BFF7A03790C7D017F02020F6C
:0405D600ECE4F57BE1
:0105DA0022FE
:1008F400E4F5087509011210CE12102DE50924FE45
:10090400601C14602E240270447BFF7A03791D7DE1
:10091400017F01120FEC7BFF7A03792D80287BFF86
:100924007A03793D7D017F01120FEC7BFF7A037915
:100934004D80137BFF7A0079B67D017F01120FECA5
:100944007BFF7A0079C67D017F02120FEC120DB68F
:100954008F08E508B4011AE50924FE600C14603B15
:10096400240270081205DB8003120B601210CE8083
:1009740020E508B402150509E509D394034003757D
:1009840009017FC87E0012000E8006E5086403603A
:0B0994000A7F327E0012000E020900F4
:01099F002235
:1005DB00E4F50AF50BF50CF50DF50EF50F1210CE33
:1005EB0012115F8F0F85680B85690C85680B856908
:1005FB000CE50C650E7004E50B650D60657BFF7AF1
:10060B0003795D7D017F01120FECAE0BAF0C7C000B
:10061B007D3C1207F3AA06AB077514027D077F0119
:10062B0012104A7B3A7D097F01121138AE0BAF0CC9
:10063B007C007D3C1207F3AA04AB057514027D0AFE
:10064B007F0112104AE50F7BFF60067A03796D80FC
:10065B00047A0379717D0D7F01120FEC850B0D85EB
:10066B000C0EE50F7BFF60067A03797680047A0324
:10067B0079877D017F02120FEC120DB68F0AE50A06
:10068B00B40118E50F6008121155E4F50F8006123E
:10069B001151750F017FC87E008016E50AB4021652
:1006AB0012110CE4F50BF50CF50FF50DF50E7FC8DB
:1006BB00FE12000E8006E50A6403600A7F647E006A
:0606CB0012000E0205F60C
:0106D1002206
:100B6000E4F50A750BFF1210CE121151E563650B07
:100B7000604F7BFF7A0379987D017F01120FECE5CE
:100B800067FB7A007514027D077F0112104A7B3AD9
:100B90007D097F01121138E564FB7A007514027D2E
:100BA0000A7F0112104A7B3A7D0C7F01121138E551
:100BB00063FB7A007514027D0D7F0112104A856374
:100BC0000B7BFF7A03799F7D017F02120FEC120DE0
:100BD000B68F0AE50AB403030211557F647E001242
:040BE000000E8088FB
:10109E001210CE12110012102D121083D2A0E4FFE6
:0A10AE001211187F647E0002000E8C
:100FC50012109E120AD5EE7019EF24FE600C146003
:100FD5000E2402700D1209A0800812084880031221
:070FE50008F4120F9780DCF5
:0A0C70000176000177000278000011
:0C110000C295E4F576F577F578F57922D4
:0B111800EFD3946440027F648F7622C6
:03115900AF76224C
:100F97000579E57970020578C3940AE578940040ED
:100FA7001CE4F578F5790577E57794644003E4F573
:0E0FB70077E577C395765003D29522C2952236
:100C7A0020402200000000000000000000000000E8
:100C8A00000000000000000000000000000000005A
:100C9A00000000000000000000000000000000004A
:100CAA00000000000000000000000000000000003A
:080CBA00000000012100C1004F
:1010830053890F438920758DFD758BFD75985053DA
:0B109300877FD28ED2ACD2AF0210E2F9
:080003008F993099FDC299228A
:1010670012079BFF600C120003740129F9E43AFA96
:0C10770080EE7F0D1200037F0A020003D0
:040E1700AB07AA0675
:100E1B00E4F511EB4A70057F30020003D3EB94002D
:100E2B00EA9400402A7C007D0AAF03AE021207F35E
:100E3B00ED2430FFAE110511740C2EF8A6077C00C3
:100E4B007D0AAF03AE021207F3AA06AB0780CDE50E
:100E5B0011D39400400E1511740C2511F8E6FF12F6
:040E6B00000380EB15
:010E6F002260
:0B112300309805C298AF99227F00228F
:08114200A29850028001C322B3
:03115C00A20022CC
:0E10E2007F407822E4F608DFFCE4F521C2002E
:0110F00022DD
:07114A007B007A00792222EC
:03002300020E705A
:0B0E7000C0E0C0D075D000C000C0077B
:100E7B0030982DC298AF99E521C3943F501A742234
:100E8B002521F8A6070521EF640D6003BF0A117435
:100E9B00212521F876008003756100D200752100B1
:050EAB00309902C2991C
:090EB000D007D000D0D0D0E03210
:100CC2000268000001670C016400016300026A000F
:080CD200000162000265000050
:10102D005389F0438901E4F58A758C4CD2A9D2AF6E
:0D103D00D28CF56AF56BF565F566F562225B
:03000B00020CDB09
:100CDB00C0E0C0D0758A00758C4CE5626008056B6E
:100CEB00E56B7002056A0566E56670020565E562EF
:100CFB006019C3E56B9414E56A9400400E756A00A5
:100D0B00756B000569E56970020568C3E5669414A7
:100D1B00E565940040277565007566000563E5631E
:100D2B00943C40197563000564E564943C400E7572
:100D3B0064000567E56794184003756700D0D0D051
:020D4B00E03294
:0411510075620122A0
:04115500E4F5622239
:0C110C00E4F568F569F56AF56BF5622200
:03115F00AF62225A
:100DB600E4F51020B1137F14FE12000E30B1FD7F52
:100DC600147E0012000E75100120B0147F147E00F0
:100DD60012000E30B0FD7F147E0012000E75100258
:100DE60020B2147F147E0012000E30B2FD7F147EF6
:100DF6000012000E75100320B3147F147E0012003B
:100E06000E30B3FD7F147E0012000E751004AF1075
:010E160022B9
:10000E00EF1FAC0670011E4C600A7D027CEFDCFE19
:04001E00DDFC80EC99
:0100220022BB
:0610F100C2A58F80D2A70A
:0810F7007F027EEFDEFEDFFC4C
:0110FF0022CE
:0A112E00C2A61210F1C2A70210F7CA
:10100F00CFCDCFCECCCE1207F37C007D0A1207F3E3
:04101F00ED2430FF8D
:0A102300D2A61210F1C2A70210F7C6
:1010B800AE07BE0104ED148006BE0209ED243F44CC
:0610C80080FF12112E2230
:1010CE007F3812112E7F0C12112E7F0612112E7FD9
:0410DE000102112ECC
:0A113800AC031210B8AF040210233C
:060FEC008B108A1189122E
:100FF2001210B8E4FDAB10AA11A9128D82758300FC
:0C1002001207B4FF60061210230D80E9F5
:01100E0022BF
:0C0F64007F0AEA24FFFDE434FFFC7E005D
:080F70008E158F168C178D18E9
:100F78007F017E00E4FBEBC39518E5176480F874E5
:0E0F88008098500AAC15AD161207E10B80E8F8
:010F96002238
:04104A008A128B1368
:10104E001210B8AA14EAD39400400D120F64AC1219
:08105E00AD1312100F1A80ED12
:011066002267
:100EB9001210B8C3EA64809480400B7F2B12102370
:100EC9008A1E8B1F800E7F2D121023C3E49BF51FF2
:100ED900E49AF51EAA1DEAD39400400D120F64ACE2
:090EE9001EAD1F12100F1A80ED5E
:010EF20022DD
:040EF3008A6E8B6F09
:100EF7001210B8AA70EAD3940040297F10120F6627
:100F0700AC6EAD6FCFCDCFCECCCE1207F3EF540F73
:100F1700FEC3940AEE5004243080022437FF1210D7
:040F2700231A80D138
:010F2B0022A3
:040F2C008A738B74C5
:100F30001210B8AA75EAD394004028EA24FFFDE411
:100F400034FFFC7F027E00120F70AC73AD74CFCD06
:100F5000CFCECCCE1207F3EF54012430FF12102372
:030F60001A80D222
:010F6300226B
:03000000020A49A8
:0C0A4900787FE4F6D8FD75817C020A90ED
:10079B00BB010689828A83E0225002E722BBFE025C
:0907AB00E32289828A83E493228F
:1007B400BB010CE58229F582E5833AF583E02250FA
:1007C40006E92582F8E622BBFE06E92582F8E22244
:0D07D400E58229F582E5833AF583E493225E
:1007E100EF8DF0A4A8F0CF8CF0A428CE8DF0A42E2C
:0207F100FE22E6
:1007F300BC000BBE0029EF8DF084FFADF022E4CCEA
:10080300F875F008EF2FFFEE33FEEC33FCEE9DECB2
:10081300984005FCEE9DFE0FD5F0E9E4CEFD22EDF8
:10082300F8F5F0EE8420D21CFEADF075F008EF2F42
:10083300FFED33FD4007985006D5F0F222C398FD33
:050843000FD5F0EA22D0
:100A5500020FC5E493A3F8E493A34003F68001F2E3
:100A650008DFF48029E493A3F85407240CC8C333A2
:100A7500C4540F4420C8834004F456800146F6DF71
:100A8500E4800B0102040810204080900C67E47E8E
:100A9500019360BCA3FF543F30E509541FFEE49366
:100AA500A360010ECF54C025E060A840B8E493A32D
:100AB500FAE493A3F8E493A3C8C582C8CAC583CA58
:100AC500F0A3C8C582C8CAC583CADFE9DEE780BE10
:010CDA000019
:00000001FF
